{
  "contractName": "ebank",
  "abi": [
    {
      "inputs": [
        {
          "internalType": "contract btk",
          "name": "_rwd",
          "type": "address"
        },
        {
          "internalType": "contract Naira",
          "name": "_naira",
          "type": "address"
        }
      ],
      "stateMutability": "nonpayable",
      "type": "constructor"
    },
    {
      "inputs": [
        {
          "internalType": "address",
          "name": "",
          "type": "address"
        }
      ],
      "name": "hasStaked",
      "outputs": [
        {
          "internalType": "bool",
          "name": "",
          "type": "bool"
        }
      ],
      "stateMutability": "view",
      "type": "function",
      "constant": true
    },
    {
      "inputs": [
        {
          "internalType": "address",
          "name": "",
          "type": "address"
        }
      ],
      "name": "isStaking",
      "outputs": [
        {
          "internalType": "bool",
          "name": "",
          "type": "bool"
        }
      ],
      "stateMutability": "view",
      "type": "function",
      "constant": true
    },
    {
      "inputs": [],
      "name": "naira",
      "outputs": [
        {
          "internalType": "contract Naira",
          "name": "",
          "type": "address"
        }
      ],
      "stateMutability": "view",
      "type": "function",
      "constant": true
    },
    {
      "inputs": [],
      "name": "name",
      "outputs": [
        {
          "internalType": "string",
          "name": "",
          "type": "string"
        }
      ],
      "stateMutability": "view",
      "type": "function",
      "constant": true
    },
    {
      "inputs": [],
      "name": "owner",
      "outputs": [
        {
          "internalType": "address",
          "name": "",
          "type": "address"
        }
      ],
      "stateMutability": "view",
      "type": "function",
      "constant": true
    },
    {
      "inputs": [],
      "name": "rwd",
      "outputs": [
        {
          "internalType": "contract btk",
          "name": "",
          "type": "address"
        }
      ],
      "stateMutability": "view",
      "type": "function",
      "constant": true
    },
    {
      "inputs": [
        {
          "internalType": "uint256",
          "name": "",
          "type": "uint256"
        }
      ],
      "name": "stakers",
      "outputs": [
        {
          "internalType": "address",
          "name": "",
          "type": "address"
        }
      ],
      "stateMutability": "view",
      "type": "function",
      "constant": true
    },
    {
      "inputs": [
        {
          "internalType": "address",
          "name": "",
          "type": "address"
        }
      ],
      "name": "stakingBalance",
      "outputs": [
        {
          "internalType": "uint256",
          "name": "",
          "type": "uint256"
        }
      ],
      "stateMutability": "view",
      "type": "function",
      "constant": true
    },
    {
      "inputs": [
        {
          "internalType": "uint256",
          "name": "_amount",
          "type": "uint256"
        }
      ],
      "name": "depositTokens",
      "outputs": [],
      "stateMutability": "nonpayable",
      "type": "function"
    },
    {
      "inputs": [],
      "name": "unstakeToken",
      "outputs": [],
      "stateMutability": "nonpayable",
      "type": "function"
    },
    {
      "inputs": [],
      "name": "issueToken",
      "outputs": [],
      "stateMutability": "nonpayable",
      "type": "function"
    }
  ],
  "bytecode": "0x60806040526040518060400160405280600581526020017f6542616e6b000000000000000000000000000000000000000000000000000000815250600090805190602001906200005192919062000150565b503480156200005f57600080fd5b50604051620012bc380380620012bc8339818101604052810190620000859190620002c3565b81600360006101000a81548173ffffffffffffffffffffffffffffffffffffffff021916908373ffffffffffffffffffffffffffffffffffffffff16021790555080600260006101000a81548173ffffffffffffffffffffffffffffffffffffffff021916908373ffffffffffffffffffffffffffffffffffffffff16021790555033600160006101000a81548173ffffffffffffffffffffffffffffffffffffffff021916908373ffffffffffffffffffffffffffffffffffffffff16021790555050506200036e565b8280546200015e9062000339565b90600052602060002090601f016020900481019282620001825760008555620001ce565b82601f106200019d57805160ff1916838001178555620001ce565b82800160010185558215620001ce579182015b82811115620001cd578251825591602001919060010190620001b0565b5b509050620001dd9190620001e1565b5090565b5b80821115620001fc576000816000905550600101620001e2565b5090565b600080fd5b600073ffffffffffffffffffffffffffffffffffffffff82169050919050565b6000620002328262000205565b9050919050565b6000620002468262000225565b9050919050565b620002588162000239565b81146200026457600080fd5b50565b60008151905062000278816200024d565b92915050565b60006200028b8262000225565b9050919050565b6200029d816200027e565b8114620002a957600080fd5b50565b600081519050620002bd8162000292565b92915050565b60008060408385031215620002dd57620002dc62000200565b5b6000620002ed8582860162000267565b92505060206200030085828601620002ac565b9150509250929050565b7f4e487b7100000000000000000000000000000000000000000000000000000000600052602260045260246000fd5b600060028204905060018216806200035257607f821691505b6020821081036200036857620003676200030a565b5b50919050565b610f3e806200037e6000396000f3fe608060405234801561001057600080fd5b50600436106100a95760003560e01c80636f49712b116100715780636f49712b146101425780638da5cb5b14610172578063a1ee8c7814610190578063c93c8f341461019a578063dd49756e146101ca578063fd5e6dd1146101e6576100a9565b806306fdde03146100ae5780631a8972d3146100cc57806320eb640c146100ea5780633b321346146100f457806345bc78ab14610112575b600080fd5b6100b6610216565b6040516100c39190610a3e565b60405180910390f35b6100d46102a4565b6040516100e19190610adf565b60405180910390f35b6100f26102ca565b005b6100fc61045c565b6040516101099190610b1b565b60405180910390f35b61012c60048036038101906101279190610b79565b610482565b6040516101399190610bbf565b60405180910390f35b61015c60048036038101906101579190610b79565b61049a565b6040516101699190610bf5565b60405180910390f35b61017a6104ba565b6040516101879190610c1f565b60405180910390f35b6101986104e0565b005b6101b460048036038101906101af9190610b79565b6106a0565b6040516101c19190610bf5565b60405180910390f35b6101e460048036038101906101df9190610c66565b6106c0565b005b61020060048036038101906101fb9190610c66565b610966565b60405161020d9190610c1f565b60405180910390f35b6000805461022390610cc2565b80601f016020809104026020016040519081016040528092919081815260200182805461024f90610cc2565b801561029c5780601f106102715761010080835404028352916020019161029c565b820191906000526020600020905b81548152906001019060200180831161027f57829003601f168201915b505050505081565b600360009054906101000a900473ffffffffffffffffffffffffffffffffffffffff1681565b6000600560003373ffffffffffffffffffffffffffffffffffffffff1673ffffffffffffffffffffffffffffffffffffffff1681526020019081526020016000205490506000811161031b57600080fd5b600260009054906101000a900473ffffffffffffffffffffffffffffffffffffffff1673ffffffffffffffffffffffffffffffffffffffff1663a9059cbb33836040518363ffffffff1660e01b8152600401610378929190610cf3565b6020604051808303816000875af1158015610397573d6000803e3d6000fd5b505050506040513d601f19601f820116820180604052508101906103bb9190610d48565b506000600560003373ffffffffffffffffffffffffffffffffffffffff1673ffffffffffffffffffffffffffffffffffffffff168152602001908152602001600020819055506000600760003373ffffffffffffffffffffffffffffffffffffffff1673ffffffffffffffffffffffffffffffffffffffff16815260200190815260200160002060006101000a81548160ff02191690831515021790555050565b600260009054906101000a900473ffffffffffffffffffffffffffffffffffffffff1681565b60056020528060005260406000206000915090505481565b60076020528060005260406000206000915054906101000a900460ff1681565b600160009054906101000a900473ffffffffffffffffffffffffffffffffffffffff1681565b600160009054906101000a900473ffffffffffffffffffffffffffffffffffffffff1673ffffffffffffffffffffffffffffffffffffffff163373ffffffffffffffffffffffffffffffffffffffff161461053a57600080fd5b60005b60048054905081101561069d576000600482815481106105605761055f610d75565b5b9060005260206000200160009054906101000a900473ffffffffffffffffffffffffffffffffffffffff16905060006009600560008473ffffffffffffffffffffffffffffffffffffffff1673ffffffffffffffffffffffffffffffffffffffff168152602001908152602001600020546105db9190610e02565b9050600081111561068857600360009054906101000a900473ffffffffffffffffffffffffffffffffffffffff1673ffffffffffffffffffffffffffffffffffffffff1663a9059cbb83836040518363ffffffff1660e01b8152600401610643929190610cf3565b6020604051808303816000875af1158015610662573d6000803e3d6000fd5b505050506040513d601f19601f820116820180604052508101906106869190610d48565b505b5050808061069590610e33565b91505061053d565b50565b60066020528060005260406000206000915054906101000a900460ff1681565b600081116106cd57600080fd5b600260009054906101000a900473ffffffffffffffffffffffffffffffffffffffff1673ffffffffffffffffffffffffffffffffffffffff166323b872dd3330846040518463ffffffff1660e01b815260040161072c93929190610e7b565b6020604051808303816000875af115801561074b573d6000803e3d6000fd5b505050506040513d601f19601f8201168201806040525081019061076f9190610d48565b5080600560003373ffffffffffffffffffffffffffffffffffffffff1673ffffffffffffffffffffffffffffffffffffffff168152602001908152602001600020546107bb9190610eb2565b600560003373ffffffffffffffffffffffffffffffffffffffff1673ffffffffffffffffffffffffffffffffffffffff16815260200190815260200160002081905550600660003373ffffffffffffffffffffffffffffffffffffffff1673ffffffffffffffffffffffffffffffffffffffff16815260200190815260200160002060009054906101000a900460ff166108b3576004339080600181540180825580915050600190039060005260206000200160009091909190916101000a81548173ffffffffffffffffffffffffffffffffffffffff021916908373ffffffffffffffffffffffffffffffffffffffff1602179055505b6001600660003373ffffffffffffffffffffffffffffffffffffffff1673ffffffffffffffffffffffffffffffffffffffff16815260200190815260200160002060006101000a81548160ff0219169083151502179055506001600760003373ffffffffffffffffffffffffffffffffffffffff1673ffffffffffffffffffffffffffffffffffffffff16815260200190815260200160002060006101000a81548160ff02191690831515021790555050565b6004818154811061097657600080fd5b906000526020600020016000915054906101000a900473ffffffffffffffffffffffffffffffffffffffff1681565b600081519050919050565b600082825260208201905092915050565b60005b838110156109df5780820151818401526020810190506109c4565b838111156109ee576000848401525b50505050565b6000601f19601f8301169050919050565b6000610a10826109a5565b610a1a81856109b0565b9350610a2a8185602086016109c1565b610a33816109f4565b840191505092915050565b60006020820190508181036000830152610a588184610a05565b905092915050565b600073ffffffffffffffffffffffffffffffffffffffff82169050919050565b6000819050919050565b6000610aa5610aa0610a9b84610a60565b610a80565b610a60565b9050919050565b6000610ab782610a8a565b9050919050565b6000610ac982610aac565b9050919050565b610ad981610abe565b82525050565b6000602082019050610af46000830184610ad0565b92915050565b6000610b0582610aac565b9050919050565b610b1581610afa565b82525050565b6000602082019050610b306000830184610b0c565b92915050565b600080fd5b6000610b4682610a60565b9050919050565b610b5681610b3b565b8114610b6157600080fd5b50565b600081359050610b7381610b4d565b92915050565b600060208284031215610b8f57610b8e610b36565b5b6000610b9d84828501610b64565b91505092915050565b6000819050919050565b610bb981610ba6565b82525050565b6000602082019050610bd46000830184610bb0565b92915050565b60008115159050919050565b610bef81610bda565b82525050565b6000602082019050610c0a6000830184610be6565b92915050565b610c1981610b3b565b82525050565b6000602082019050610c346000830184610c10565b92915050565b610c4381610ba6565b8114610c4e57600080fd5b50565b600081359050610c6081610c3a565b92915050565b600060208284031215610c7c57610c7b610b36565b5b6000610c8a84828501610c51565b91505092915050565b7f4e487b7100000000000000000000000000000000000000000000000000000000600052602260045260246000fd5b60006002820490506001821680610cda57607f821691505b602082108103610ced57610cec610c93565b5b50919050565b6000604082019050610d086000830185610c10565b610d156020830184610bb0565b9392505050565b610d2581610bda565b8114610d3057600080fd5b50565b600081519050610d4281610d1c565b92915050565b600060208284031215610d5e57610d5d610b36565b5b6000610d6c84828501610d33565b91505092915050565b7f4e487b7100000000000000000000000000000000000000000000000000000000600052603260045260246000fd5b7f4e487b7100000000000000000000000000000000000000000000000000000000600052601260045260246000fd5b7f4e487b7100000000000000000000000000000000000000000000000000000000600052601160045260246000fd5b6000610e0d82610ba6565b9150610e1883610ba6565b925082610e2857610e27610da4565b5b828204905092915050565b6000610e3e82610ba6565b91507fffffffffffffffffffffffffffffffffffffffffffffffffffffffffffffffff8203610e7057610e6f610dd3565b5b600182019050919050565b6000606082019050610e906000830186610c10565b610e9d6020830185610c10565b610eaa6040830184610bb0565b949350505050565b6000610ebd82610ba6565b9150610ec883610ba6565b9250827fffffffffffffffffffffffffffffffffffffffffffffffffffffffffffffffff03821115610efd57610efc610dd3565b5b82820190509291505056fea264697066735822122035af9879291ca387c5fec8ce45d6ce104926b063f02ec1b23683c6fe942805de64736f6c634300080d0033",
  "immutableReferences": {},
  "source": "// SPDX-License-Identifier: GPL-3.0\npragma solidity ^0.8.13;\n\nimport \"./btk.sol\";\nimport './naira.sol';\ncontract ebank {\n    string public name = \"eBank\";\n    address public owner;\n    Naira public naira;\n    btk public rwd;\n\n    address[] public stakers;\n\n    mapping(address => uint) public stakingBalance;\n    mapping(address => bool) public hasStaked;\n    mapping(address => bool) public isStaking;\n\n    constructor(btk _rwd, Naira _naira) {\n        rwd = _rwd;\n        naira = _naira;\n        owner = msg.sender;\n    }\n// staking function\n    function depositTokens(uint _amount) public {\n        // require staking amount to greater than zere\n        require(_amount > 0);\n        // transfer tokens to this contract address for staking\n        naira.transferFrom(msg.sender, address(this), _amount);\n\n        // update staking balance\n        stakingBalance[msg.sender] = stakingBalance[msg.sender] + _amount;\n    if (!hasStaked[msg.sender]){\n        stakers.push(msg.sender);\n    }\n\n    hasStaked[msg.sender] = true;\n    isStaking[msg.sender] = true;\n    \n    }\n\n// unstakin function\nfunction unstakeToken() public {\n    uint balance = stakingBalance[msg.sender];\n    require(balance > 0);\n\n    naira.transfer(msg.sender, balance);\n    // reset staking balance\n    stakingBalance[msg.sender] = 0;\n    // update staking status\n    isStaking[msg.sender] = false;\n}\n\n// issue reward\n    function issueToken()public {\n        require(msg.sender == owner);\n\n        for (uint i = 0; i<stakers.length; i++){\n            address recipient = stakers[i];\n            uint balance = stakingBalance[recipient]/9;\n            if(balance > 0){\n                rwd.transfer(recipient, balance);\n            }\n        }\n    }\n}\n",
  "sourcePath": "/home/nait/IT/chain/staking-app/src/contracts/ebank.sol",
  "compiler": {
    "name": "solc",
    "version": "0.8.13+commit.abaa5c0e.Emscripten.clang"
  },
  "schemaVersion": "3.4.6",
  "updatedAt": "2022-04-15T16:06:11.594Z",
  "networkType": "ethereum",
  "devdoc": {
    "kind": "dev",
    "methods": {},
    "version": 1
  },
  "userdoc": {
    "kind": "user",
    "methods": {},
    "version": 1
  }
}